{
  "_format": "hh-sol-artifact-1",
  "contractName": "Tarefa03",
  "sourceName": "contracts/Tarefa03.sol",
  "abi": [
    {
      "inputs": [],
      "stateMutability": "nonpayable",
      "type": "constructor"
    },
    {
      "anonymous": false,
      "inputs": [
        {
          "indexed": true,
          "internalType": "address",
          "name": "owner",
          "type": "address"
        },
        {
          "indexed": true,
          "internalType": "address",
          "name": "spender",
          "type": "address"
        },
        {
          "indexed": false,
          "internalType": "uint256",
          "name": "value",
          "type": "uint256"
        }
      ],
      "name": "Approval",
      "type": "event"
    },
    {
      "anonymous": false,
      "inputs": [
        {
          "indexed": true,
          "internalType": "address",
          "name": "from",
          "type": "address"
        },
        {
          "indexed": true,
          "internalType": "address",
          "name": "to",
          "type": "address"
        },
        {
          "indexed": false,
          "internalType": "uint256",
          "name": "value",
          "type": "uint256"
        }
      ],
      "name": "Transfer",
      "type": "event"
    },
    {
      "inputs": [],
      "name": "TIME_BLOCK",
      "outputs": [
        {
          "internalType": "uint256",
          "name": "",
          "type": "uint256"
        }
      ],
      "stateMutability": "view",
      "type": "function"
    },
    {
      "inputs": [
        {
          "internalType": "address",
          "name": "owner",
          "type": "address"
        },
        {
          "internalType": "address",
          "name": "spender",
          "type": "address"
        }
      ],
      "name": "allowance",
      "outputs": [
        {
          "internalType": "uint256",
          "name": "",
          "type": "uint256"
        }
      ],
      "stateMutability": "view",
      "type": "function"
    },
    {
      "inputs": [
        {
          "internalType": "address",
          "name": "spender",
          "type": "address"
        },
        {
          "internalType": "uint256",
          "name": "amount",
          "type": "uint256"
        }
      ],
      "name": "approve",
      "outputs": [
        {
          "internalType": "bool",
          "name": "",
          "type": "bool"
        }
      ],
      "stateMutability": "nonpayable",
      "type": "function"
    },
    {
      "inputs": [
        {
          "internalType": "address",
          "name": "account",
          "type": "address"
        }
      ],
      "name": "balanceOf",
      "outputs": [
        {
          "internalType": "uint256",
          "name": "",
          "type": "uint256"
        }
      ],
      "stateMutability": "view",
      "type": "function"
    },
    {
      "inputs": [],
      "name": "contractOwner",
      "outputs": [
        {
          "internalType": "address",
          "name": "",
          "type": "address"
        }
      ],
      "stateMutability": "view",
      "type": "function"
    },
    {
      "inputs": [],
      "name": "decimals",
      "outputs": [
        {
          "internalType": "uint8",
          "name": "",
          "type": "uint8"
        }
      ],
      "stateMutability": "view",
      "type": "function"
    },
    {
      "inputs": [
        {
          "internalType": "address",
          "name": "spender",
          "type": "address"
        },
        {
          "internalType": "uint256",
          "name": "subtractedValue",
          "type": "uint256"
        }
      ],
      "name": "decreaseAllowance",
      "outputs": [
        {
          "internalType": "bool",
          "name": "",
          "type": "bool"
        }
      ],
      "stateMutability": "nonpayable",
      "type": "function"
    },
    {
      "inputs": [
        {
          "internalType": "address",
          "name": "spender",
          "type": "address"
        },
        {
          "internalType": "uint256",
          "name": "addedValue",
          "type": "uint256"
        }
      ],
      "name": "increaseAllowance",
      "outputs": [
        {
          "internalType": "bool",
          "name": "",
          "type": "bool"
        }
      ],
      "stateMutability": "nonpayable",
      "type": "function"
    },
    {
      "inputs": [],
      "name": "name",
      "outputs": [
        {
          "internalType": "string",
          "name": "",
          "type": "string"
        }
      ],
      "stateMutability": "view",
      "type": "function"
    },
    {
      "inputs": [],
      "name": "symbol",
      "outputs": [
        {
          "internalType": "string",
          "name": "",
          "type": "string"
        }
      ],
      "stateMutability": "view",
      "type": "function"
    },
    {
      "inputs": [],
      "name": "totalSupply",
      "outputs": [
        {
          "internalType": "uint256",
          "name": "",
          "type": "uint256"
        }
      ],
      "stateMutability": "view",
      "type": "function"
    },
    {
      "inputs": [
        {
          "internalType": "address",
          "name": "to",
          "type": "address"
        },
        {
          "internalType": "uint256",
          "name": "amount",
          "type": "uint256"
        }
      ],
      "name": "transfer",
      "outputs": [
        {
          "internalType": "bool",
          "name": "",
          "type": "bool"
        }
      ],
      "stateMutability": "nonpayable",
      "type": "function"
    },
    {
      "inputs": [
        {
          "internalType": "address",
          "name": "from",
          "type": "address"
        },
        {
          "internalType": "address",
          "name": "to",
          "type": "address"
        },
        {
          "internalType": "uint256",
          "name": "amount",
          "type": "uint256"
        }
      ],
      "name": "transferFrom",
      "outputs": [
        {
          "internalType": "bool",
          "name": "",
          "type": "bool"
        }
      ],
      "stateMutability": "nonpayable",
      "type": "function"
    }
  ],
  "bytecode": "0x60806040526363b0cd016005553480156200001957600080fd5b506040518060400160405280600881526020017f54617265666130330000000000000000000000000000000000000000000000008152506040518060400160405280600381526020017f54334c000000000000000000000000000000000000000000000000000000000081525081600390805190602001906200009e929190620002cb565b508060049080519060200190620000b7929190620002cb565b50505033600660006101000a81548173ffffffffffffffffffffffffffffffffffffffff021916908373ffffffffffffffffffffffffffffffffffffffff1602179055506200013933620001106200013f60201b60201c565b600a6200011e9190620004bb565b6127106200012d9190620005f8565b6200014860201b60201c565b6200073a565b60006012905090565b600073ffffffffffffffffffffffffffffffffffffffff168273ffffffffffffffffffffffffffffffffffffffff161415620001bb576040517f08c379a0000000000000000000000000000000000000000000000000000000008152600401620001b290620003b3565b60405180910390fd5b620001cf60008383620002c160201b60201c565b8060026000828254620001e3919062000403565b92505081905550806000808473ffffffffffffffffffffffffffffffffffffffff1673ffffffffffffffffffffffffffffffffffffffff16815260200190815260200160002060008282546200023a919062000403565b925050819055508173ffffffffffffffffffffffffffffffffffffffff16600073ffffffffffffffffffffffffffffffffffffffff167fddf252ad1be2c89b69c2b068fc378daa952ba7f163c4a11628f55a4df523b3ef83604051620002a19190620003d5565b60405180910390a3620002bd60008383620002c660201b60201c565b5050565b505050565b505050565b828054620002d99062000670565b90600052602060002090601f016020900481019282620002fd576000855562000349565b82601f106200031857805160ff191683800117855562000349565b8280016001018555821562000349579182015b82811115620003485782518255916020019190600101906200032b565b5b5090506200035891906200035c565b5090565b5b80821115620003775760008160009055506001016200035d565b5090565b60006200038a601f83620003f2565b9150620003978262000711565b602082019050919050565b620003ad8162000659565b82525050565b60006020820190508181036000830152620003ce816200037b565b9050919050565b6000602082019050620003ec6000830184620003a2565b92915050565b600082825260208201905092915050565b6000620004108262000659565b91506200041d8362000659565b9250827fffffffffffffffffffffffffffffffffffffffffffffffffffffffffffffffff03821115620004555762000454620006a6565b5b828201905092915050565b6000808291508390505b6001851115620004b2578086048111156200048a5762000489620006a6565b5b60018516156200049a5780820291505b8081029050620004aa8562000704565b94506200046a565b94509492505050565b6000620004c88262000659565b9150620004d58362000663565b9250620005047fffffffffffffffffffffffffffffffffffffffffffffffffffffffffffffffff84846200050c565b905092915050565b6000826200051e5760019050620005f1565b816200052e5760009050620005f1565b8160018114620005475760028114620005525762000588565b6001915050620005f1565b60ff841115620005675762000566620006a6565b5b8360020a915084821115620005815762000580620006a6565b5b50620005f1565b5060208310610133831016604e8410600b8410161715620005c25782820a905083811115620005bc57620005bb620006a6565b5b620005f1565b620005d1848484600162000460565b92509050818404811115620005eb57620005ea620006a6565b5b81810290505b9392505050565b6000620006058262000659565b9150620006128362000659565b9250817fffffffffffffffffffffffffffffffffffffffffffffffffffffffffffffffff04831182151516156200064e576200064d620006a6565b5b828202905092915050565b6000819050919050565b600060ff82169050919050565b600060028204905060018216806200068957607f821691505b60208210811415620006a0576200069f620006d5565b5b50919050565b7f4e487b7100000000000000000000000000000000000000000000000000000000600052601160045260246000fd5b7f4e487b7100000000000000000000000000000000000000000000000000000000600052602260045260246000fd5b60008160011c9050919050565b7f45524332303a206d696e7420746f20746865207a65726f206164647265737300600082015250565b6114b1806200074a6000396000f3fe608060405234801561001057600080fd5b50600436106100cf5760003560e01c806370a082311161008c578063a457c2d711610066578063a457c2d71461022a578063a9059cbb1461025a578063ce606ee01461028a578063dd62ed3e146102a8576100cf565b806370a08231146101be57806381596b4d146101ee57806395d89b411461020c576100cf565b806306fdde03146100d4578063095ea7b3146100f257806318160ddd1461012257806323b872dd14610140578063313ce56714610170578063395093511461018e575b600080fd5b6100dc6102d8565b6040516100e99190610f2e565b60405180910390f35b61010c60048036038101906101079190610d2f565b61036a565b6040516101199190610f13565b60405180910390f35b61012a61038d565b6040516101379190611050565b60405180910390f35b61015a60048036038101906101559190610ce0565b610397565b6040516101679190610f13565b60405180910390f35b610178610463565b604051610185919061106b565b60405180910390f35b6101a860048036038101906101a39190610d2f565b61046c565b6040516101b59190610f13565b60405180910390f35b6101d860048036038101906101d39190610c7b565b6104a3565b6040516101e59190611050565b60405180910390f35b6101f66104eb565b6040516102039190611050565b60405180910390f35b6102146104f1565b6040516102219190610f2e565b60405180910390f35b610244600480360381019061023f9190610d2f565b610583565b6040516102519190610f13565b60405180910390f35b610274600480360381019061026f9190610d2f565b6105fa565b6040516102819190610f13565b60405180910390f35b6102926106ba565b60405161029f9190610ef8565b60405180910390f35b6102c260048036038101906102bd9190610ca4565b6106e0565b6040516102cf9190611050565b60405180910390f35b6060600380546102e790611180565b80601f016020809104026020016040519081016040528092919081815260200182805461031390611180565b80156103605780601f1061033557610100808354040283529160200191610360565b820191906000526020600020905b81548152906001019060200180831161034357829003601f168201915b5050505050905090565b600080610375610767565b905061038281858561076f565b600191505092915050565b6000600254905090565b6000600660009054906101000a900473ffffffffffffffffffffffffffffffffffffffff1673ffffffffffffffffffffffffffffffffffffffff163373ffffffffffffffffffffffffffffffffffffffff1614806103f6575060055442115b610435576040517f08c379a000000000000000000000000000000000000000000000000000000000815260040161042c90610f70565b60405180910390fd5b600061043f610767565b905061044c85828561093a565b6104578585856109c6565b60019150509392505050565b60006012905090565b600080610477610767565b905061049881858561048985896106e0565b61049391906110a2565b61076f565b600191505092915050565b60008060008373ffffffffffffffffffffffffffffffffffffffff1673ffffffffffffffffffffffffffffffffffffffff168152602001908152602001600020549050919050565b60055481565b60606004805461050090611180565b80601f016020809104026020016040519081016040528092919081815260200182805461052c90611180565b80156105795780601f1061054e57610100808354040283529160200191610579565b820191906000526020600020905b81548152906001019060200180831161055c57829003601f168201915b5050505050905090565b60008061058e610767565b9050600061059c82866106e0565b9050838110156105e1576040517f08c379a00000000000000000000000000000000000000000000000000000000081526004016105d890611030565b60405180910390fd5b6105ee828686840361076f565b60019250505092915050565b6000600660009054906101000a900473ffffffffffffffffffffffffffffffffffffffff1673ffffffffffffffffffffffffffffffffffffffff163373ffffffffffffffffffffffffffffffffffffffff161480610659575060055442115b610698576040517f08c379a000000000000000000000000000000000000000000000000000000000815260040161068f90610f70565b60405180910390fd5b60006106a2610767565b90506106af8185856109c6565b600191505092915050565b600660009054906101000a900473ffffffffffffffffffffffffffffffffffffffff1681565b6000600160008473ffffffffffffffffffffffffffffffffffffffff1673ffffffffffffffffffffffffffffffffffffffff16815260200190815260200160002060008373ffffffffffffffffffffffffffffffffffffffff1673ffffffffffffffffffffffffffffffffffffffff16815260200190815260200160002054905092915050565b600033905090565b600073ffffffffffffffffffffffffffffffffffffffff168373ffffffffffffffffffffffffffffffffffffffff1614156107df576040517f08c379a00000000000000000000000000000000000000000000000000000000081526004016107d690611010565b60405180910390fd5b600073ffffffffffffffffffffffffffffffffffffffff168273ffffffffffffffffffffffffffffffffffffffff16141561084f576040517f08c379a000000000000000000000000000000000000000000000000000000000815260040161084690610f90565b60405180910390fd5b80600160008573ffffffffffffffffffffffffffffffffffffffff1673ffffffffffffffffffffffffffffffffffffffff16815260200190815260200160002060008473ffffffffffffffffffffffffffffffffffffffff1673ffffffffffffffffffffffffffffffffffffffff168152602001908152602001600020819055508173ffffffffffffffffffffffffffffffffffffffff168373ffffffffffffffffffffffffffffffffffffffff167f8c5be1e5ebec7d5bd14f71427d1e84f3dd0314c0f7b2291e5b200ac8c7c3b9258360405161092d9190611050565b60405180910390a3505050565b600061094684846106e0565b90507fffffffffffffffffffffffffffffffffffffffffffffffffffffffffffffffff81146109c057818110156109b2576040517f08c379a00000000000000000000000000000000000000000000000000000000081526004016109a990610fb0565b60405180910390fd5b6109bf848484840361076f565b5b50505050565b600073ffffffffffffffffffffffffffffffffffffffff168373ffffffffffffffffffffffffffffffffffffffff161415610a36576040517f08c379a0000000000000000000000000000000000000000000000000000000008152600401610a2d90610ff0565b60405180910390fd5b600073ffffffffffffffffffffffffffffffffffffffff168273ffffffffffffffffffffffffffffffffffffffff161415610aa6576040517f08c379a0000000000000000000000000000000000000000000000000000000008152600401610a9d90610f50565b60405180910390fd5b610ab1838383610c47565b60008060008573ffffffffffffffffffffffffffffffffffffffff1673ffffffffffffffffffffffffffffffffffffffff16815260200190815260200160002054905081811015610b37576040517f08c379a0000000000000000000000000000000000000000000000000000000008152600401610b2e90610fd0565b60405180910390fd5b8181036000808673ffffffffffffffffffffffffffffffffffffffff1673ffffffffffffffffffffffffffffffffffffffff16815260200190815260200160002081905550816000808573ffffffffffffffffffffffffffffffffffffffff1673ffffffffffffffffffffffffffffffffffffffff1681526020019081526020016000206000828254610bca91906110a2565b925050819055508273ffffffffffffffffffffffffffffffffffffffff168473ffffffffffffffffffffffffffffffffffffffff167fddf252ad1be2c89b69c2b068fc378daa952ba7f163c4a11628f55a4df523b3ef84604051610c2e9190611050565b60405180910390a3610c41848484610c4c565b50505050565b505050565b505050565b600081359050610c608161144d565b92915050565b600081359050610c7581611464565b92915050565b600060208284031215610c8d57600080fd5b6000610c9b84828501610c51565b91505092915050565b60008060408385031215610cb757600080fd5b6000610cc585828601610c51565b9250506020610cd685828601610c51565b9150509250929050565b600080600060608486031215610cf557600080fd5b6000610d0386828701610c51565b9350506020610d1486828701610c51565b9250506040610d2586828701610c66565b9150509250925092565b60008060408385031215610d4257600080fd5b6000610d5085828601610c51565b9250506020610d6185828601610c66565b9150509250929050565b610d74816110f8565b82525050565b610d838161110a565b82525050565b6000610d9482611086565b610d9e8185611091565b9350610dae81856020860161114d565b610db781611210565b840191505092915050565b6000610dcf602383611091565b9150610dda82611221565b604082019050919050565b6000610df2600f83611091565b9150610dfd82611270565b602082019050919050565b6000610e15602283611091565b9150610e2082611299565b604082019050919050565b6000610e38601d83611091565b9150610e43826112e8565b602082019050919050565b6000610e5b602683611091565b9150610e6682611311565b604082019050919050565b6000610e7e602583611091565b9150610e8982611360565b604082019050919050565b6000610ea1602483611091565b9150610eac826113af565b604082019050919050565b6000610ec4602583611091565b9150610ecf826113fe565b604082019050919050565b610ee381611136565b82525050565b610ef281611140565b82525050565b6000602082019050610f0d6000830184610d6b565b92915050565b6000602082019050610f286000830184610d7a565b92915050565b60006020820190508181036000830152610f488184610d89565b905092915050565b60006020820190508181036000830152610f6981610dc2565b9050919050565b60006020820190508181036000830152610f8981610de5565b9050919050565b60006020820190508181036000830152610fa981610e08565b9050919050565b60006020820190508181036000830152610fc981610e2b565b9050919050565b60006020820190508181036000830152610fe981610e4e565b9050919050565b6000602082019050818103600083015261100981610e71565b9050919050565b6000602082019050818103600083015261102981610e94565b9050919050565b6000602082019050818103600083015261104981610eb7565b9050919050565b60006020820190506110656000830184610eda565b92915050565b60006020820190506110806000830184610ee9565b92915050565b600081519050919050565b600082825260208201905092915050565b60006110ad82611136565b91506110b883611136565b9250827fffffffffffffffffffffffffffffffffffffffffffffffffffffffffffffffff038211156110ed576110ec6111b2565b5b828201905092915050565b600061110382611116565b9050919050565b60008115159050919050565b600073ffffffffffffffffffffffffffffffffffffffff82169050919050565b6000819050919050565b600060ff82169050919050565b60005b8381101561116b578082015181840152602081019050611150565b8381111561117a576000848401525b50505050565b6000600282049050600182168061119857607f821691505b602082108114156111ac576111ab6111e1565b5b50919050565b7f4e487b7100000000000000000000000000000000000000000000000000000000600052601160045260246000fd5b7f4e487b7100000000000000000000000000000000000000000000000000000000600052602260045260246000fd5b6000601f19601f8301169050919050565b7f45524332303a207472616e7366657220746f20746865207a65726f206164647260008201527f6573730000000000000000000000000000000000000000000000000000000000602082015250565b7f5761697420756e74696c20323032330000000000000000000000000000000000600082015250565b7f45524332303a20617070726f766520746f20746865207a65726f20616464726560008201527f7373000000000000000000000000000000000000000000000000000000000000602082015250565b7f45524332303a20696e73756666696369656e7420616c6c6f77616e6365000000600082015250565b7f45524332303a207472616e7366657220616d6f756e742065786365656473206260008201527f616c616e63650000000000000000000000000000000000000000000000000000602082015250565b7f45524332303a207472616e736665722066726f6d20746865207a65726f20616460008201527f6472657373000000000000000000000000000000000000000000000000000000602082015250565b7f45524332303a20617070726f76652066726f6d20746865207a65726f2061646460008201527f7265737300000000000000000000000000000000000000000000000000000000602082015250565b7f45524332303a2064656372656173656420616c6c6f77616e63652062656c6f7760008201527f207a65726f000000000000000000000000000000000000000000000000000000602082015250565b611456816110f8565b811461146157600080fd5b50565b61146d81611136565b811461147857600080fd5b5056fea2646970667358221220a7c683bf1fbf6df14e30819922c88d50220683f7b6286ec83b74a1868e185ded64736f6c63430008040033",
  "linkReferences": {},
  "deployedLinkReferences": {}
}