{
  "_format": "hh-sol-artifact-1",
  "contractName": "Tarefa02",
  "sourceName": "contracts/Tarefa02.sol",
  "abi": [
    {
      "inputs": [],
      "stateMutability": "nonpayable",
      "type": "constructor"
    },
    {
      "anonymous": false,
      "inputs": [
        {
          "indexed": true,
          "internalType": "address",
          "name": "owner",
          "type": "address"
        },
        {
          "indexed": true,
          "internalType": "address",
          "name": "spender",
          "type": "address"
        },
        {
          "indexed": false,
          "internalType": "uint256",
          "name": "value",
          "type": "uint256"
        }
      ],
      "name": "Approval",
      "type": "event"
    },
    {
      "anonymous": false,
      "inputs": [
        {
          "indexed": true,
          "internalType": "address",
          "name": "from",
          "type": "address"
        },
        {
          "indexed": true,
          "internalType": "address",
          "name": "to",
          "type": "address"
        },
        {
          "indexed": false,
          "internalType": "uint256",
          "name": "value",
          "type": "uint256"
        }
      ],
      "name": "Transfer",
      "type": "event"
    },
    {
      "inputs": [],
      "name": "BURN_RATE",
      "outputs": [
        {
          "internalType": "uint256",
          "name": "",
          "type": "uint256"
        }
      ],
      "stateMutability": "view",
      "type": "function"
    },
    {
      "inputs": [
        {
          "internalType": "address",
          "name": "owner",
          "type": "address"
        },
        {
          "internalType": "address",
          "name": "spender",
          "type": "address"
        }
      ],
      "name": "allowance",
      "outputs": [
        {
          "internalType": "uint256",
          "name": "",
          "type": "uint256"
        }
      ],
      "stateMutability": "view",
      "type": "function"
    },
    {
      "inputs": [
        {
          "internalType": "address",
          "name": "spender",
          "type": "address"
        },
        {
          "internalType": "uint256",
          "name": "amount",
          "type": "uint256"
        }
      ],
      "name": "approve",
      "outputs": [
        {
          "internalType": "bool",
          "name": "",
          "type": "bool"
        }
      ],
      "stateMutability": "nonpayable",
      "type": "function"
    },
    {
      "inputs": [
        {
          "internalType": "address",
          "name": "account",
          "type": "address"
        }
      ],
      "name": "balanceOf",
      "outputs": [
        {
          "internalType": "uint256",
          "name": "",
          "type": "uint256"
        }
      ],
      "stateMutability": "view",
      "type": "function"
    },
    {
      "inputs": [],
      "name": "decimals",
      "outputs": [
        {
          "internalType": "uint8",
          "name": "",
          "type": "uint8"
        }
      ],
      "stateMutability": "view",
      "type": "function"
    },
    {
      "inputs": [
        {
          "internalType": "address",
          "name": "spender",
          "type": "address"
        },
        {
          "internalType": "uint256",
          "name": "subtractedValue",
          "type": "uint256"
        }
      ],
      "name": "decreaseAllowance",
      "outputs": [
        {
          "internalType": "bool",
          "name": "",
          "type": "bool"
        }
      ],
      "stateMutability": "nonpayable",
      "type": "function"
    },
    {
      "inputs": [
        {
          "internalType": "address",
          "name": "spender",
          "type": "address"
        },
        {
          "internalType": "uint256",
          "name": "addedValue",
          "type": "uint256"
        }
      ],
      "name": "increaseAllowance",
      "outputs": [
        {
          "internalType": "bool",
          "name": "",
          "type": "bool"
        }
      ],
      "stateMutability": "nonpayable",
      "type": "function"
    },
    {
      "inputs": [],
      "name": "name",
      "outputs": [
        {
          "internalType": "string",
          "name": "",
          "type": "string"
        }
      ],
      "stateMutability": "view",
      "type": "function"
    },
    {
      "inputs": [],
      "name": "symbol",
      "outputs": [
        {
          "internalType": "string",
          "name": "",
          "type": "string"
        }
      ],
      "stateMutability": "view",
      "type": "function"
    },
    {
      "inputs": [],
      "name": "totalSupply",
      "outputs": [
        {
          "internalType": "uint256",
          "name": "",
          "type": "uint256"
        }
      ],
      "stateMutability": "view",
      "type": "function"
    },
    {
      "inputs": [
        {
          "internalType": "address",
          "name": "to",
          "type": "address"
        },
        {
          "internalType": "uint256",
          "name": "amount",
          "type": "uint256"
        }
      ],
      "name": "transfer",
      "outputs": [
        {
          "internalType": "bool",
          "name": "",
          "type": "bool"
        }
      ],
      "stateMutability": "nonpayable",
      "type": "function"
    },
    {
      "inputs": [
        {
          "internalType": "address",
          "name": "from",
          "type": "address"
        },
        {
          "internalType": "address",
          "name": "to",
          "type": "address"
        },
        {
          "internalType": "uint256",
          "name": "amount",
          "type": "uint256"
        }
      ],
      "name": "transferFrom",
      "outputs": [
        {
          "internalType": "bool",
          "name": "",
          "type": "bool"
        }
      ],
      "stateMutability": "nonpayable",
      "type": "function"
    }
  ],
  "bytecode": "0x6080604052600580553480156200001557600080fd5b506040518060400160405280600881526020017f54617265666130320000000000000000000000000000000000000000000000008152506040518060400160405280600381526020017f54324c000000000000000000000000000000000000000000000000000000000081525081600390805190602001906200009a92919062000286565b508060049080519060200190620000b392919062000286565b505050620000f433620000cb620000fa60201b60201c565b600a620000d9919062000476565b612710620000e89190620005b3565b6200010360201b60201c565b620006f5565b60006012905090565b600073ffffffffffffffffffffffffffffffffffffffff168273ffffffffffffffffffffffffffffffffffffffff16141562000176576040517f08c379a00000000000000000000000000000000000000000000000000000000081526004016200016d906200036e565b60405180910390fd5b6200018a600083836200027c60201b60201c565b80600260008282546200019e9190620003be565b92505081905550806000808473ffffffffffffffffffffffffffffffffffffffff1673ffffffffffffffffffffffffffffffffffffffff1681526020019081526020016000206000828254620001f59190620003be565b925050819055508173ffffffffffffffffffffffffffffffffffffffff16600073ffffffffffffffffffffffffffffffffffffffff167fddf252ad1be2c89b69c2b068fc378daa952ba7f163c4a11628f55a4df523b3ef836040516200025c919062000390565b60405180910390a362000278600083836200028160201b60201c565b5050565b505050565b505050565b82805462000294906200062b565b90600052602060002090601f016020900481019282620002b8576000855562000304565b82601f10620002d357805160ff191683800117855562000304565b8280016001018555821562000304579182015b8281111562000303578251825591602001919060010190620002e6565b5b50905062000313919062000317565b5090565b5b808211156200033257600081600090555060010162000318565b5090565b600062000345601f83620003ad565b91506200035282620006cc565b602082019050919050565b620003688162000614565b82525050565b60006020820190508181036000830152620003898162000336565b9050919050565b6000602082019050620003a760008301846200035d565b92915050565b600082825260208201905092915050565b6000620003cb8262000614565b9150620003d88362000614565b9250827fffffffffffffffffffffffffffffffffffffffffffffffffffffffffffffffff0382111562000410576200040f62000661565b5b828201905092915050565b6000808291508390505b60018511156200046d5780860481111562000445576200044462000661565b5b6001851615620004555780820291505b80810290506200046585620006bf565b945062000425565b94509492505050565b6000620004838262000614565b915062000490836200061e565b9250620004bf7fffffffffffffffffffffffffffffffffffffffffffffffffffffffffffffffff8484620004c7565b905092915050565b600082620004d95760019050620005ac565b81620004e95760009050620005ac565b81600181146200050257600281146200050d5762000543565b6001915050620005ac565b60ff84111562000522576200052162000661565b5b8360020a9150848211156200053c576200053b62000661565b5b50620005ac565b5060208310610133831016604e8410600b84101617156200057d5782820a90508381111562000577576200057662000661565b5b620005ac565b6200058c84848460016200041b565b92509050818404811115620005a657620005a562000661565b5b81810290505b9392505050565b6000620005c08262000614565b9150620005cd8362000614565b9250817fffffffffffffffffffffffffffffffffffffffffffffffffffffffffffffffff048311821515161562000609576200060862000661565b5b828202905092915050565b6000819050919050565b600060ff82169050919050565b600060028204905060018216806200064457607f821691505b602082108114156200065b576200065a62000690565b5b50919050565b7f4e487b7100000000000000000000000000000000000000000000000000000000600052601160045260246000fd5b7f4e487b7100000000000000000000000000000000000000000000000000000000600052602260045260246000fd5b60008160011c9050919050565b7f45524332303a206d696e7420746f20746865207a65726f206164647265737300600082015250565b6116e180620007056000396000f3fe608060405234801561001057600080fd5b50600436106100b45760003560e01c806370a082311161007157806370a08231146101a357806395d89b41146101d3578063a457c2d7146101f1578063a9059cbb14610221578063dd62ed3e14610251578063f846a88514610281576100b4565b806306fdde03146100b9578063095ea7b3146100d757806318160ddd1461010757806323b872dd14610125578063313ce567146101555780633950935114610173575b600080fd5b6100c161029f565b6040516100ce9190610fdb565b60405180910390f35b6100f160048036038101906100ec9190610de3565b610331565b6040516100fe9190610fc0565b60405180910390f35b61010f610354565b60405161011c919061111d565b60405180910390f35b61013f600480360381019061013a9190610d94565b61035e565b60405161014c9190610fc0565b60405180910390f35b61015d6103c8565b60405161016a9190611138565b60405180910390f35b61018d60048036038101906101889190610de3565b6103d1565b60405161019a9190610fc0565b60405180910390f35b6101bd60048036038101906101b89190610d2f565b610408565b6040516101ca919061111d565b60405180910390f35b6101db610450565b6040516101e89190610fdb565b60405180910390f35b61020b60048036038101906102069190610de3565b6104e2565b6040516102189190610fc0565b60405180910390f35b61023b60048036038101906102369190610de3565b610559565b6040516102489190610fc0565b60405180910390f35b61026b60048036038101906102669190610d58565b6105b7565b604051610278919061111d565b60405180910390f35b61028961063e565b604051610296919061111d565b60405180910390f35b6060600380546102ae9061130c565b80601f01602080910402602001604051908101604052809291908181526020018280546102da9061130c565b80156103275780601f106102fc57610100808354040283529160200191610327565b820191906000526020600020905b81548152906001019060200180831161030a57829003601f168201915b5050505050905090565b60008061033c610644565b905061034981858561064c565b600191505092915050565b6000600254905090565b600080610369610644565b9050600060646005548561037d91906111f6565b61038791906111c5565b9050610394868386610817565b6103a561039f610644565b826108a3565b6103bb868683876103b69190611250565b610a7a565b6001925050509392505050565b60006012905090565b6000806103dc610644565b90506103fd8185856103ee85896105b7565b6103f8919061116f565b61064c565b600191505092915050565b60008060008373ffffffffffffffffffffffffffffffffffffffff1673ffffffffffffffffffffffffffffffffffffffff168152602001908152602001600020549050919050565b60606004805461045f9061130c565b80601f016020809104026020016040519081016040528092919081815260200182805461048b9061130c565b80156104d85780601f106104ad576101008083540402835291602001916104d8565b820191906000526020600020905b8154815290600101906020018083116104bb57829003601f168201915b5050505050905090565b6000806104ed610644565b905060006104fb82866105b7565b905083811015610540576040517f08c379a0000000000000000000000000000000000000000000000000000000008152600401610537906110fd565b60405180910390fd5b61054d828686840361064c565b60019250505092915050565b600080610564610644565b9050600060646005548561057891906111f6565b61058291906111c5565b905061059561058f610644565b826108a3565b6105ab828683876105a69190611250565b610a7a565b60019250505092915050565b6000600160008473ffffffffffffffffffffffffffffffffffffffff1673ffffffffffffffffffffffffffffffffffffffff16815260200190815260200160002060008373ffffffffffffffffffffffffffffffffffffffff1673ffffffffffffffffffffffffffffffffffffffff16815260200190815260200160002054905092915050565b60055481565b600033905090565b600073ffffffffffffffffffffffffffffffffffffffff168373ffffffffffffffffffffffffffffffffffffffff1614156106bc576040517f08c379a00000000000000000000000000000000000000000000000000000000081526004016106b3906110dd565b60405180910390fd5b600073ffffffffffffffffffffffffffffffffffffffff168273ffffffffffffffffffffffffffffffffffffffff16141561072c576040517f08c379a00000000000000000000000000000000000000000000000000000000081526004016107239061103d565b60405180910390fd5b80600160008573ffffffffffffffffffffffffffffffffffffffff1673ffffffffffffffffffffffffffffffffffffffff16815260200190815260200160002060008473ffffffffffffffffffffffffffffffffffffffff1673ffffffffffffffffffffffffffffffffffffffff168152602001908152602001600020819055508173ffffffffffffffffffffffffffffffffffffffff168373ffffffffffffffffffffffffffffffffffffffff167f8c5be1e5ebec7d5bd14f71427d1e84f3dd0314c0f7b2291e5b200ac8c7c3b9258360405161080a919061111d565b60405180910390a3505050565b600061082384846105b7565b90507fffffffffffffffffffffffffffffffffffffffffffffffffffffffffffffffff811461089d578181101561088f576040517f08c379a00000000000000000000000000000000000000000000000000000000081526004016108869061105d565b60405180910390fd5b61089c848484840361064c565b5b50505050565b600073ffffffffffffffffffffffffffffffffffffffff168273ffffffffffffffffffffffffffffffffffffffff161415610913576040517f08c379a000000000000000000000000000000000000000000000000000000000815260040161090a9061109d565b60405180910390fd5b61091f82600083610cfb565b60008060008473ffffffffffffffffffffffffffffffffffffffff1673ffffffffffffffffffffffffffffffffffffffff168152602001908152602001600020549050818110156109a5576040517f08c379a000000000000000000000000000000000000000000000000000000000815260040161099c9061101d565b60405180910390fd5b8181036000808573ffffffffffffffffffffffffffffffffffffffff1673ffffffffffffffffffffffffffffffffffffffff1681526020019081526020016000208190555081600260008282546109fc9190611250565b92505081905550600073ffffffffffffffffffffffffffffffffffffffff168373ffffffffffffffffffffffffffffffffffffffff167fddf252ad1be2c89b69c2b068fc378daa952ba7f163c4a11628f55a4df523b3ef84604051610a61919061111d565b60405180910390a3610a7583600084610d00565b505050565b600073ffffffffffffffffffffffffffffffffffffffff168373ffffffffffffffffffffffffffffffffffffffff161415610aea576040517f08c379a0000000000000000000000000000000000000000000000000000000008152600401610ae1906110bd565b60405180910390fd5b600073ffffffffffffffffffffffffffffffffffffffff168273ffffffffffffffffffffffffffffffffffffffff161415610b5a576040517f08c379a0000000000000000000000000000000000000000000000000000000008152600401610b5190610ffd565b60405180910390fd5b610b65838383610cfb565b60008060008573ffffffffffffffffffffffffffffffffffffffff1673ffffffffffffffffffffffffffffffffffffffff16815260200190815260200160002054905081811015610beb576040517f08c379a0000000000000000000000000000000000000000000000000000000008152600401610be29061107d565b60405180910390fd5b8181036000808673ffffffffffffffffffffffffffffffffffffffff1673ffffffffffffffffffffffffffffffffffffffff16815260200190815260200160002081905550816000808573ffffffffffffffffffffffffffffffffffffffff1673ffffffffffffffffffffffffffffffffffffffff1681526020019081526020016000206000828254610c7e919061116f565b925050819055508273ffffffffffffffffffffffffffffffffffffffff168473ffffffffffffffffffffffffffffffffffffffff167fddf252ad1be2c89b69c2b068fc378daa952ba7f163c4a11628f55a4df523b3ef84604051610ce2919061111d565b60405180910390a3610cf5848484610d00565b50505050565b505050565b505050565b600081359050610d148161167d565b92915050565b600081359050610d2981611694565b92915050565b600060208284031215610d4157600080fd5b6000610d4f84828501610d05565b91505092915050565b60008060408385031215610d6b57600080fd5b6000610d7985828601610d05565b9250506020610d8a85828601610d05565b9150509250929050565b600080600060608486031215610da957600080fd5b6000610db786828701610d05565b9350506020610dc886828701610d05565b9250506040610dd986828701610d1a565b9150509250925092565b60008060408385031215610df657600080fd5b6000610e0485828601610d05565b9250506020610e1585828601610d1a565b9150509250929050565b610e2881611296565b82525050565b6000610e3982611153565b610e43818561115e565b9350610e538185602086016112d9565b610e5c816113cb565b840191505092915050565b6000610e7460238361115e565b9150610e7f826113dc565b604082019050919050565b6000610e9760228361115e565b9150610ea28261142b565b604082019050919050565b6000610eba60228361115e565b9150610ec58261147a565b604082019050919050565b6000610edd601d8361115e565b9150610ee8826114c9565b602082019050919050565b6000610f0060268361115e565b9150610f0b826114f2565b604082019050919050565b6000610f2360218361115e565b9150610f2e82611541565b604082019050919050565b6000610f4660258361115e565b9150610f5182611590565b604082019050919050565b6000610f6960248361115e565b9150610f74826115df565b604082019050919050565b6000610f8c60258361115e565b9150610f978261162e565b604082019050919050565b610fab816112c2565b82525050565b610fba816112cc565b82525050565b6000602082019050610fd56000830184610e1f565b92915050565b60006020820190508181036000830152610ff58184610e2e565b905092915050565b6000602082019050818103600083015261101681610e67565b9050919050565b6000602082019050818103600083015261103681610e8a565b9050919050565b6000602082019050818103600083015261105681610ead565b9050919050565b6000602082019050818103600083015261107681610ed0565b9050919050565b6000602082019050818103600083015261109681610ef3565b9050919050565b600060208201905081810360008301526110b681610f16565b9050919050565b600060208201905081810360008301526110d681610f39565b9050919050565b600060208201905081810360008301526110f681610f5c565b9050919050565b6000602082019050818103600083015261111681610f7f565b9050919050565b60006020820190506111326000830184610fa2565b92915050565b600060208201905061114d6000830184610fb1565b92915050565b600081519050919050565b600082825260208201905092915050565b600061117a826112c2565b9150611185836112c2565b9250827fffffffffffffffffffffffffffffffffffffffffffffffffffffffffffffffff038211156111ba576111b961133e565b5b828201905092915050565b60006111d0826112c2565b91506111db836112c2565b9250826111eb576111ea61136d565b5b828204905092915050565b6000611201826112c2565b915061120c836112c2565b9250817fffffffffffffffffffffffffffffffffffffffffffffffffffffffffffffffff04831182151516156112455761124461133e565b5b828202905092915050565b600061125b826112c2565b9150611266836112c2565b9250828210156112795761127861133e565b5b828203905092915050565b600061128f826112a2565b9050919050565b60008115159050919050565b600073ffffffffffffffffffffffffffffffffffffffff82169050919050565b6000819050919050565b600060ff82169050919050565b60005b838110156112f75780820151818401526020810190506112dc565b83811115611306576000848401525b50505050565b6000600282049050600182168061132457607f821691505b602082108114156113385761133761139c565b5b50919050565b7f4e487b7100000000000000000000000000000000000000000000000000000000600052601160045260246000fd5b7f4e487b7100000000000000000000000000000000000000000000000000000000600052601260045260246000fd5b7f4e487b7100000000000000000000000000000000000000000000000000000000600052602260045260246000fd5b6000601f19601f8301169050919050565b7f45524332303a207472616e7366657220746f20746865207a65726f206164647260008201527f6573730000000000000000000000000000000000000000000000000000000000602082015250565b7f45524332303a206275726e20616d6f756e7420657863656564732062616c616e60008201527f6365000000000000000000000000000000000000000000000000000000000000602082015250565b7f45524332303a20617070726f766520746f20746865207a65726f20616464726560008201527f7373000000000000000000000000000000000000000000000000000000000000602082015250565b7f45524332303a20696e73756666696369656e7420616c6c6f77616e6365000000600082015250565b7f45524332303a207472616e7366657220616d6f756e742065786365656473206260008201527f616c616e63650000000000000000000000000000000000000000000000000000602082015250565b7f45524332303a206275726e2066726f6d20746865207a65726f2061646472657360008201527f7300000000000000000000000000000000000000000000000000000000000000602082015250565b7f45524332303a207472616e736665722066726f6d20746865207a65726f20616460008201527f6472657373000000000000000000000000000000000000000000000000000000602082015250565b7f45524332303a20617070726f76652066726f6d20746865207a65726f2061646460008201527f7265737300000000000000000000000000000000000000000000000000000000602082015250565b7f45524332303a2064656372656173656420616c6c6f77616e63652062656c6f7760008201527f207a65726f000000000000000000000000000000000000000000000000000000602082015250565b61168681611284565b811461169157600080fd5b50565b61169d816112c2565b81146116a857600080fd5b5056fea2646970667358221220dae036c669b8c3e5de522ed01a7aee871b6ff7f5358cdb9e10c653aadc66a33764736f6c63430008040033",
  "linkReferences": {},
  "deployedLinkReferences": {}
}