{
  "_format": "hh-sol-artifact-1",
  "contractName": "SellerTarefa04",
  "sourceName": "contracts/SellerTarefa04.sol",
  "abi": [
    {
      "inputs": [
        {
          "internalType": "address",
          "name": "tokenAddress",
          "type": "address"
        }
      ],
      "stateMutability": "nonpayable",
      "type": "constructor"
    },
    {
      "anonymous": false,
      "inputs": [
        {
          "indexed": false,
          "internalType": "address",
          "name": "buyer",
          "type": "address"
        },
        {
          "indexed": false,
          "internalType": "uint256",
          "name": "amountOfMatic",
          "type": "uint256"
        },
        {
          "indexed": false,
          "internalType": "uint256",
          "name": "amountOfTokens",
          "type": "uint256"
        }
      ],
      "name": "BuyTokens",
      "type": "event"
    },
    {
      "anonymous": false,
      "inputs": [
        {
          "indexed": true,
          "internalType": "address",
          "name": "previousOwner",
          "type": "address"
        },
        {
          "indexed": true,
          "internalType": "address",
          "name": "newOwner",
          "type": "address"
        }
      ],
      "name": "OwnershipTransferred",
      "type": "event"
    },
    {
      "inputs": [],
      "name": "buyTokens",
      "outputs": [
        {
          "internalType": "uint256",
          "name": "tokenAmount",
          "type": "uint256"
        }
      ],
      "stateMutability": "payable",
      "type": "function"
    },
    {
      "inputs": [],
      "name": "owner",
      "outputs": [
        {
          "internalType": "address",
          "name": "",
          "type": "address"
        }
      ],
      "stateMutability": "view",
      "type": "function"
    },
    {
      "inputs": [],
      "name": "renounceOwnership",
      "outputs": [],
      "stateMutability": "nonpayable",
      "type": "function"
    },
    {
      "inputs": [],
      "name": "tokensPerMatic",
      "outputs": [
        {
          "internalType": "uint256",
          "name": "",
          "type": "uint256"
        }
      ],
      "stateMutability": "view",
      "type": "function"
    },
    {
      "inputs": [
        {
          "internalType": "address",
          "name": "newOwner",
          "type": "address"
        }
      ],
      "name": "transferOwnership",
      "outputs": [],
      "stateMutability": "nonpayable",
      "type": "function"
    },
    {
      "inputs": [],
      "name": "withdraw",
      "outputs": [],
      "stateMutability": "nonpayable",
      "type": "function"
    }
  ],
  "bytecode": "0x6080604052606460025534801561001557600080fd5b5060405162000f5138038062000f518339818101604052810190610039919061017d565b61005561004a61009c60201b60201c565b6100a460201b60201c565b80600160006101000a81548173ffffffffffffffffffffffffffffffffffffffff021916908373ffffffffffffffffffffffffffffffffffffffff160217905550506101ef565b600033905090565b60008060009054906101000a900473ffffffffffffffffffffffffffffffffffffffff169050816000806101000a81548173ffffffffffffffffffffffffffffffffffffffff021916908373ffffffffffffffffffffffffffffffffffffffff1602179055508173ffffffffffffffffffffffffffffffffffffffff168173ffffffffffffffffffffffffffffffffffffffff167f8be0079c531659141344cd1fd0a4f28419497f9722a3daafe3b4186f6b6457e060405160405180910390a35050565b600081519050610177816101d8565b92915050565b60006020828403121561018f57600080fd5b600061019d84828501610168565b91505092915050565b60006101b1826101b8565b9050919050565b600073ffffffffffffffffffffffffffffffffffffffff82169050919050565b6101e1816101a6565b81146101ec57600080fd5b50565b610d5280620001ff6000396000f3fe6080604052600436106100555760003560e01c80633ccfd60b1461005a578063715018a6146100715780638da5cb5b14610088578063d076c608146100b3578063d0febe4c146100de578063f2fde38b146100fc575b600080fd5b34801561006657600080fd5b5061006f610125565b005b34801561007d57600080fd5b50610086610225565b005b34801561009457600080fd5b5061009d610239565b6040516100aa91906108ba565b60405180910390f35b3480156100bf57600080fd5b506100c8610262565b6040516100d59190610a15565b60405180910390f35b6100e6610268565b6040516100f39190610a15565b60405180910390f35b34801561010857600080fd5b50610123600480360381019061011e91906106f4565b6104e7565b005b61012d61056b565b600047905060008111610175576040517f08c379a000000000000000000000000000000000000000000000000000000000815260040161016c906109d5565b60405180910390fd5b60003373ffffffffffffffffffffffffffffffffffffffff164760405161019b906108a5565b60006040518083038185875af1925050503d80600081146101d8576040519150601f19603f3d011682016040523d82523d6000602084013e6101dd565b606091505b5050905080610221576040517f08c379a0000000000000000000000000000000000000000000000000000000008152600401610218906109b5565b60405180910390fd5b5050565b61022d61056b565b61023760006105e9565b565b60008060009054906101000a900473ffffffffffffffffffffffffffffffffffffffff16905090565b60025481565b60008034116102ac576040517f08c379a00000000000000000000000000000000000000000000000000000000081526004016102a390610955565b60405180910390fd5b6000600254346102bc9190610a4c565b90506000600160009054906101000a900473ffffffffffffffffffffffffffffffffffffffff1673ffffffffffffffffffffffffffffffffffffffff166370a08231306040518263ffffffff1660e01b815260040161031b91906108ba565b60206040518083038186803b15801561033357600080fd5b505afa158015610347573d6000803e3d6000fd5b505050506040513d601f19601f8201168201806040525081019061036b9190610746565b9050818110156103b0576040517f08c379a00000000000000000000000000000000000000000000000000000000081526004016103a790610975565b60405180910390fd5b6000600160009054906101000a900473ffffffffffffffffffffffffffffffffffffffff1673ffffffffffffffffffffffffffffffffffffffff1663a9059cbb33856040518363ffffffff1660e01b815260040161040f9291906108d5565b602060405180830381600087803b15801561042957600080fd5b505af115801561043d573d6000803e3d6000fd5b505050506040513d601f19601f82011682018060405250810190610461919061071d565b9050806104a3576040517f08c379a000000000000000000000000000000000000000000000000000000000815260040161049a906109f5565b60405180910390fd5b7f0a37b72bb67eee30e09084cf386f8a17817c57f620c3ab95fb25d6a20356ec773334856040516104d6939291906108fe565b60405180910390a182935050505090565b6104ef61056b565b600073ffffffffffffffffffffffffffffffffffffffff168173ffffffffffffffffffffffffffffffffffffffff16141561055f576040517f08c379a000000000000000000000000000000000000000000000000000000000815260040161055690610935565b60405180910390fd5b610568816105e9565b50565b6105736106ad565b73ffffffffffffffffffffffffffffffffffffffff16610591610239565b73ffffffffffffffffffffffffffffffffffffffff16146105e7576040517f08c379a00000000000000000000000000000000000000000000000000000000081526004016105de90610995565b60405180910390fd5b565b60008060009054906101000a900473ffffffffffffffffffffffffffffffffffffffff169050816000806101000a81548173ffffffffffffffffffffffffffffffffffffffff021916908373ffffffffffffffffffffffffffffffffffffffff1602179055508173ffffffffffffffffffffffffffffffffffffffff168173ffffffffffffffffffffffffffffffffffffffff167f8be0079c531659141344cd1fd0a4f28419497f9722a3daafe3b4186f6b6457e060405160405180910390a35050565b600033905090565b6000813590506106c481610cd7565b92915050565b6000815190506106d981610cee565b92915050565b6000815190506106ee81610d05565b92915050565b60006020828403121561070657600080fd5b6000610714848285016106b5565b91505092915050565b60006020828403121561072f57600080fd5b600061073d848285016106ca565b91505092915050565b60006020828403121561075857600080fd5b6000610766848285016106df565b91505092915050565b61077881610aa6565b82525050565b600061078b602683610a3b565b915061079682610b1d565b604082019050919050565b60006107ae601d83610a3b565b91506107b982610b6c565b602082019050919050565b60006107d1603483610a3b565b91506107dc82610b95565b604082019050919050565b60006107f4602083610a3b565b91506107ff82610be4565b602082019050919050565b6000610817602d83610a3b565b915061082282610c0d565b604082019050919050565b600061083a600083610a30565b915061084582610c5c565b600082019050919050565b600061085d602183610a3b565b915061086882610c5f565b604082019050919050565b6000610880602083610a3b565b915061088b82610cae565b602082019050919050565b61089f81610ae4565b82525050565b60006108b08261082d565b9150819050919050565b60006020820190506108cf600083018461076f565b92915050565b60006040820190506108ea600083018561076f565b6108f76020830184610896565b9392505050565b6000606082019050610913600083018661076f565b6109206020830185610896565b61092d6040830184610896565b949350505050565b6000602082019050818103600083015261094e8161077e565b9050919050565b6000602082019050818103600083015261096e816107a1565b9050919050565b6000602082019050818103600083015261098e816107c4565b9050919050565b600060208201905081810360008301526109ae816107e7565b9050919050565b600060208201905081810360008301526109ce8161080a565b9050919050565b600060208201905081810360008301526109ee81610850565b9050919050565b60006020820190508181036000830152610a0e81610873565b9050919050565b6000602082019050610a2a6000830184610896565b92915050565b600081905092915050565b600082825260208201905092915050565b6000610a5782610ae4565b9150610a6283610ae4565b9250817fffffffffffffffffffffffffffffffffffffffffffffffffffffffffffffffff0483118215151615610a9b57610a9a610aee565b5b828202905092915050565b6000610ab182610ac4565b9050919050565b60008115159050919050565b600073ffffffffffffffffffffffffffffffffffffffff82169050919050565b6000819050919050565b7f4e487b7100000000000000000000000000000000000000000000000000000000600052601160045260246000fd5b7f4f776e61626c653a206e6577206f776e657220697320746865207a65726f206160008201527f6464726573730000000000000000000000000000000000000000000000000000602082015250565b7f53656e64204d4154494320746f2062757920736f6d6520746f6b656e73000000600082015250565b7f56656e646f7220636f6e747261637420686173206e6f7420656e6f756768207460008201527f6f6b656e7320696e206974732062616c616e6365000000000000000000000000602082015250565b7f4f776e61626c653a2063616c6c6572206973206e6f7420746865206f776e6572600082015250565b7f4661696c656420746f2073656e6420757365722062616c616e6365206261636b60008201527f20746f20746865206f776e657200000000000000000000000000000000000000602082015250565b50565b7f4f776e657220686173206e6f742062616c616e636520746f207769746864726160008201527f7700000000000000000000000000000000000000000000000000000000000000602082015250565b7f4661696c656420746f207472616e7366657220746f6b656e20746f2075736572600082015250565b610ce081610aa6565b8114610ceb57600080fd5b50565b610cf781610ab8565b8114610d0257600080fd5b50565b610d0e81610ae4565b8114610d1957600080fd5b5056fea26469706673582212200565a897a2e8ca28b439790b5b951988b5696753fb26efe1f8f2696206ed5f9c64736f6c63430008040033",
  "linkReferences": {},
  "deployedLinkReferences": {}
}